:100000000C943B000C9458000C9458000C9458002D
:100010000C9458000C9458000C9458000C94580000
:100020000C9458000C9458000C9458000C945800F0
:100030000C9458000C94A6000C9458000C94580092
:100040000C9458000C9458000C94AC010C94DA01F8
:100050000C9458000C9458000C9458000C945800C0
:100060000C9458000C9458009D039F03A103A30314
:10007000A503AC03B30311241FBECFEFD8E0DEBF4E
:10008000CDBF11E0A0E0B1E0E8E5F9E002C00590E5
:100090000D92A433B107D9F721E0A4E3B1E001C088
:1000A0001D92AA37B207E1F70E945B040C94AA04E0
:1000B0000C9400001F93CF93DF9300D01F92CDB715
:1000C000DEB7809100019091010182309105D9F055
:1000D0008330910529F1019761F58091340187FD05
:1000E0002EC040E1BE016F5F7F4F90E00E9475041B
:1000F00084E291E00E945002CE0101960E945002DB
:1001000082E090E018C080913401880F0E947A024A
:10011000182F0E94B202111107C083E090E00BC0BB
:1001200087E291E00E945002809134018F5F8093BA
:10013000340181E090E090930101809300010F90E1
:100140000F900F90DF91CF911F9108951F920F9202
:100150000FB60F9211242F933F934F935F936F939A
:100160007F938F939F93AF93BF93EF93FF930E94DF
:100170005A00FF91EF91BF91AF919F918F917F9125
:100180006F915F914F913F912F910F900FBE0F9004
:100190001F901895299A85E08A95F1F70000299813
:1001A0000895CF93C82F662311F0289A01C028988C
:1001B000549A559A569A579A5F985E985D985C98AB
:1001C000C7FD5F9AC6FD5E9AC5FD5D9AC4FD5C9A47
:1001D0000E94CA005F985E985D985C98C3FD5F9A24
:1001E000C2FD5E9AC1FD5D9AC0FD5C9A0E94CA0084
:1001F0005C9A5D9A5E9A5F9A8FE39FE10197F1F7AF
:1002000000C00000CF91089528985D9A54985598A1
:1002100056985798299A85E08A95F1F700004C9BEB
:1002200002C080E101C080E04D9980624E998064F7
:100230004F998068299895E09A95F1F70000299ADE
:1002400095E09A95F1F700004C9981604D99826094
:100250004E9984604F9988602998089560E00C94C5
:10026000D10061E00C94D100611102C0805801C03E
:1002700080540C942E010E94040187FDFCCF85E17F
:100280008A95F1F700000E94040190E0089581E052
:100290000C942E0182E00C942E0161E00C94D100AC
:1002A000CF93DF93EC018991882319F00E944D01CF
:1002B000FACFDF91CF910895CF93DF93FC01849122
:1002C000EF012196882321F00E944D01FE01F7CF16
:1002D000DF91CF910895CF93C82F209A559A219AF4
:1002E000549A559A569A579A8FEF99EF0197F1F7CA
:1002F00000C000005D9A5C9A0E94CA008FE19EE4F3
:100300000197F1F700C000000E94CA008FEF90E053
:100310000197F1F700C000000E94CA008FEF90E043
:100320000197F1F700C000005C980E94CA008FEFAF
:1003300090E00197F1F700C0000088E20E942E01D2
:1003400088E00E942E010E94470186E00E942E0153
:100350008C2FCF910C942E011F920F920FB60F92FB
:1003600011242F938F939F93EF93FF938091C0005D
:100370009091C6008C71E0913701EF5FEF71209191
:100380003601E21739F0E0933701F0E0E65CFE4F0A
:10039000908301C082E090913501892B80933501D3
:1003A000FF91EF919F918F912F910F900FBE0F9022
:1003B0001F9018951F920F920FB60F9211248F93D2
:1003C0009F93EF93FF939091390180913801981793
:1003D00069F0E0913801EF5FEF71E0933801F0E0F0
:1003E000E65AFE4F80818093C60005C08091C1000F
:1003F0008F7D8093C100FF91EF919F918F910F901E
:100400000FBE0F901F90189510923901109238016D
:10041000109237011092360197FF03C022E020931B
:10042000C00090789093C5008093C40088E98093C1
:10043000C10086E08093C2000895909137018091B9
:1004400036019817A9F0909136019F5F9F71E92FAF
:10045000F0E0E65CFE4F20818091350190933601FB
:100460001092350190E0982F8827820F911D0895F2
:1004700080E091E00895909139019F5F9F712091F4
:1004800038019217E1F3E92FF0E0E65AFE4F80833E
:10049000909339018091C10080628093C1000895DA
:1004A000CF93DF93EC018991882319F00E943B02DE
:1004B000FACFDF91CF910895CF93DF93FC01849120
:1004C000EF012196882321F00E943B02FE01F7CF25
:1004D000DF91CF91089587B18F7C87B988B1806310
:1004E00088B9E9EBF0E080818C7F808388E9809394
:1004F000B800089594EA9093BC009091BC0097FFD7
:10050000FCCF8093BB0084E88093BC008091BC004A
:1005100087FFFCCF9091B900987F983119F081E066
:10052000903409F480E008958093BB0084E88093C0
:10053000BC008091BC0087FFFCCF089584EC8093C1
:10054000BC008091BC0087FFFCCF8091BB00089568
:1005500084E88093BC008091BC0087FFFCCF809131
:10056000BB00089584E98093BC000895FC0142918A
:1005700021E030E001C0220F6A95EAF7342F322BD8
:100580003083FC013081232B20830895FC014291AC
:1005900021E030E001C0220F6A95EAF72095342F60
:1005A00032233083FC013081232320830895FC0112
:1005B000429121E030E001C0220F6A95EAF7322F24
:1005C000309534233083FC013081232B2083089520
:1005D000FC01808121E030E001C0220F6A95EAF73A
:1005E000413011F4282B02C0209528232083089540
:1005F000FC01408121E030E001C0220F6A95EAF75A
:10060000242720830895CF93DF9300D0CDB7DEB7A2
:100610009A838983898190E002C0959587956A9530
:10062000E2F781700F900F90DF91CF9108958111C3
:1006300031C06330F9F050F4662379F0613039F558
:1006400085B58B7F85BD85B582600FC0653041F073
:100650006630E9F485B5846013C085B58B7F10C022
:1006600085B5846085BD85B58D7F85BD85B58E7F5B
:1006700085BD089585B58B7F85BD85B5826003C036
:1006800085BD85B58D7F85BD85B58160F1CF85B58B
:100690008B7FE8CF813009F044C06330D1F068F43B
:1006A000662399F0613069F5809181008B7F80939A
:1006B00081008091810082602CC0653099F06630A5
:1006C00001F580918100846011C0809181008B7F51
:1006D0000DC0809181008B7F80938100809181008B
:1006E000826009C08091810084600EC08093810087
:1006F000809181008D7F8093810080918100816055
:100700000DC0809181008B7F80938100809181005A
:100710008D7F80938100809181008E7F8093810006
:100720000895862F90E08730910548F5FC01EC5C38
:10073000FF4F8091B1000C946F048B7F07C08B7FBB
:100740000CC08B7F11C084601DC084608093B10099
:100750008091B1008D7F0DC084608093B100809145
:10076000B100826014C084608093B1008091B100B8
:1007700082608093B1008091B10081600DC0809152
:10078000B1008B7F8093B1008091B1008D7F809309
:10079000B1008091B1008E7F8093B10008958111E6
:1007A0000CC080916E00662321F0613011F48160ED
:1007B00001C08E7F80936E000895813061F4809136
:1007C0006F00662321F0613011F4816001C08E7FDB
:1007D00080936F00089580917000662321F061304E
:1007E00011F4816001C08E7F80937000089567E0EE
:1007F0008BE290E00E94F80285E08A95F1F7000014
:1008000067E08BE290E00E94F80285E08A95F1F7BC
:1008100000000895EF92FF920F931F93CF93DF9301
:10082000E82FF0E0EA5FFE4FE080E62FF0E0EE5FB9
:10083000FE4F0081C7E0D0E0F12CA7010C2E02C0D2
:10084000559547950A94E2F7417060E085E290E0A3
:100850000E94E8020E94F703219778F7C7E0D0E0F2
:1008600010E0A8010C2E02C0559547950A94E2F7B6
:10087000417060E085E290E00E94E8020E94F70388
:10088000219778F764E08BE290E00E94F80285E01F
:100890008A95F1F7000064E08BE290E00E94F80294
:1008A00085E08A95F1F70000DF91CF911F910F91BC
:1008B000FF90EF90089587E690E00E9404020E9466
:1008C0006B0261E081E00E94170361E081E00E9419
:1008D000CF03789480E191E00E945002FFCFEE0FA9
:1008E000FF1F0590F491E02D0994BB274A3031F4A5
:1008F000992322F4BDE2909581959F4F0C94810439
:10090000BB27FB015527AA27880F991FAA1FA417E9
:1009100010F0A41B83955051B9F7A05DAA3308F0DD
:10092000A95DA193009779F7B111B1931192CB0111
:100930000C949A04DC01FC01672F71917723E1F795
:10094000329704C07C916D9370836291AE17BF079C
:08095000C8F30895F894FFCFED
:10095800010008040201C0F9A4B0999282F88098B5
:100968000D0A2D2D2D545749207363616E6E6572E3
:100978002D2D2D000D0A00204F4B202D20524545CE
:0409880045450000E1
:00000001FF
