:100000000C943B000C9458000C9458000C9458002D
:100010000C9458000C9458000C9458000C94580000
:100020000C9458000C9458000C9458000C945800F0
:100030000C9458000C945A000C9458000C945800DE
:100040000C9458000C9458000C9423020C94510208
:100050000C9458000C94C1000C9458000C94580057
:100060000C9458000C945800C903CB03CD03CF0364
:10007000D103D803DF0311241FBECFEFD8E0DEBFCA
:10008000CDBF11E0A0E0B1E0E2E3FAE002C00590EC
:100090000D92A23AB107D9F721E0A2EAB1E001C07E
:1000A0001D92A73FB207E1F70E9487040C94170541
:1000B0000C9400001F920F920FB60F9211248F9391
:1000C000EF93FF93EAE7F0E0808180648083FF9103
:1000D000EF918F910F900FBE0F901F9018958B305E
:1000E0009105B8F09C012B55310923313105A0F061
:1000F000265931092331310590F0265931092D3126
:10010000310580F083569240C19778F081E791E005
:10011000089580E291E0089581E391E008958FE3EE
:1001200091E0089581E691E008958FE491E00895CB
:100130008B309105B8F09C012B55310923313105E5
:10014000A0F0265931092331310590F026593109A3
:100150002D31310580F083569240C19778F081E7C8
:1001600091E0089589E791E008958FE791E008957F
:1001700082E891E008958EE891E0089587E891E0A3
:1001800008951F920F920FB60F9211240F931F9391
:100190002F933F934F935F936F937F938F939F938F
:1001A000AF93BF93EF93FF93CF93DF93CDB7DEB7BA
:1001B0006497DEBFCDBF00917800109179000E9456
:1001C000BE014AE062EA71E0C8010E94E2040E94B6
:1001D000C70160E085E00E94AB018BE991E00E94DD
:1001E000C701C8010E949800BC01CE0101960E947F
:1001F000DB04CE0101960E94C70161E085E00E9408
:10020000AB0161E080E00E94AB0183E991E00E94D4
:10021000C7014AE0BE016F5E7F4FC8010E94E20441
:100220000E94C7028AE991E00E94C702C8010E94A9
:100230006F00BC01CE0101960E94DB04CE01019645
:100240000E94C7028EE991E00E94C70264960FB631
:10025000F894DEBF0FBECDBFDF91CF91FF91EF913C
:10026000BF91AF919F918F917F916F915F914F91CE
:100270003F912F911F910F910F900FBE0F901F90E4
:100280001895299A85E08A95F1F700002998089534
:10029000CF93C82F662311F0289A01C02898549A4A
:1002A000559A569A579A5F985E985D985C98C7FDE4
:1002B0005F9AC6FD5E9AC5FD5D9AC4FD5C9A0E9478
:1002C00041015F985E985D985C98C3FD5F9AC2FD9E
:1002D0005E9AC1FD5D9AC0FD5C9A0E9441015C9AE4
:1002E0005D9A5E9A5F9A8FE39FE10197F1F700C0F4
:1002F0000000CF91089528985D9A54985598569883
:100300005798299A85E08A95F1F700004C9B02C026
:1003100080E101C080E04D9980624E9980644F99E0
:100320008068299895E09A95F1F70000299A95E060
:100330009A95F1F700004C9981604D9982604E9931
:1003400084604F9988602998089560E00C94480172
:1003500061E00C944801611102C0805801C08054D2
:100360000C94A5010E947B0187FDFCCF85E18A9555
:10037000F1F700000E947B0190E0089581E00C9469
:10038000A50182E00C94A50161E00C944801CF9393
:10039000DF93EC018991882319F00E94C401FACF00
:1003A000DF91CF910895CF93DF93FC018491EF010A
:1003B0002196882321F00E94C401FE01F7CFDF912E
:1003C000CF910895CF93C82F209A559A219A549A85
:1003D000559A569A579A8FEF99EF0197F1F700C007
:1003E00000005D9A5C9A0E9441018FE19EE40197B2
:1003F000F1F700C000000E9441018FEF90E00197EB
:10040000F1F700C000000E9441018FEF90E00197DA
:10041000F1F700C000005C980E9441018FEF90E06E
:100420000197F1F700C0000088E20E94A50188E072
:100430000E94A5010E94BE0186E00E94A5018C2FAA
:10044000CF910C94A5011F920F920FB60F92112419
:100450002F938F939F93EF93FF938091C000909180
:10046000C6008C71E091B401EF5FEF712091B30190
:10047000E21739F0E093B401F0E0E954FE4F9083C5
:1004800001C082E09091B201892B8093B201FF916B
:10049000EF919F918F912F910F900FBE0F901F9012
:1004A00018951F920F920FB60F9211248F939F935E
:1004B000EF93FF939091B6018091B501981769F081
:1004C000E091B501EF5FEF71E093B501F0E0E95223
:1004D000FE4F80818093C60005C08091C1008F7D52
:1004E0008093C100FF91EF919F918F910F900FBE6C
:1004F0000F901F9018951092B6011092B5011092AE
:10050000B4011092B30197FF03C022E02093C00012
:1005100090789093C5008093C40088E98093C100CF
:1005200086E08093C20008959091B4018091B30158
:100530009817A9F09091B3019F5F9F71E92FF0E0A8
:10054000E954FE4F20818091B2019093B301109243
:10055000B20190E0982F8827820F911D089580E0C6
:1005600091E008959091B6019F5F9F712091B50130
:100570009217E1F3E92FF0E0E952FE4F8083909368
:10058000B6018091C10080628093C1000895CF932D
:10059000DF93EC018991882319F00E94B202FACF0F
:1005A000DF91CF910895CF93DF93FC018491EF0108
:1005B0002196882321F00E94B202FE01F7CFDF913D
:1005C000CF910895FC01429121E030E001C0220F5B
:1005D0006A95EAF7342F322B3083FC013081232BCC
:1005E00020830895FC01429121E030E001C0220FF8
:1005F0006A95EAF72095342F32233083FC0130814D
:10060000232320830895FC01429121E030E001C0C2
:10061000220F6A95EAF7322F309534233083FC019C
:100620003081232B20830895FC01808121E030E07C
:1006300001C0220F6A95EAF7413011F4282B02C05D
:100640002095282320830895FC01408121E030E09B
:1006500001C0220F6A95EAF7242720830895CF93DB
:10066000DF9300D0CDB7DEB79A838983898190E08C
:1006700002C0959587956A95E2F781700F900F906B
:10068000DF91CF910895811131C06330F9F050F4BA
:10069000662379F0613039F585B58B7F85BD85B5E9
:1006A00082600FC0653041F06630E9F485B5846042
:1006B00013C085B58B7F10C085B5846085BD85B5B9
:1006C0008D7F85BD85B58E7F85BD089585B58B7F72
:1006D00085BD85B5826003C085BD85B58D7F85BD2F
:1006E00085B58160F1CF85B58B7FE8CF813009F08A
:1006F00044C06330D1F068F4662399F0613069F545
:10070000809181008B7F8093810080918100826045
:100710002CC0653099F0663001F5809181008460CD
:1007200011C0809181008B7F0DC0809181008B7FF3
:100730008093810080918100826009C08091810056
:1007400084600EC080938100809181008D7F8093B2
:1007500081008091810081600DC0809181008B7F3C
:1007600080938100809181008D7F809381008091B2
:1007700081008E7F809381000895862F90E08730DE
:10078000910548F5FC01EC5CFF4F8091B1000C94A1
:10079000D5048B7F07C08B7F0CC08B7F11C084601A
:1007A0001DC084608093B1008091B1008D7F0DC029
:1007B00084608093B1008091B100826014C0846035
:1007C0008093B1008091B10082608093B1008091EC
:1007D000B10081600DC08091B1008B7F8093B1002A
:1007E0008091B1008D7F8093B1008091B1008E7FA8
:1007F0008093B100089581110CC080916E00662332
:1008000021F0613011F4816001C08E7F80936E0011
:100810000895813061F480916F00662321F061308A
:1008200011F4816001C08E7F80936F0008958091E4
:100830007000662321F0613011F4816001C08E7F69
:1008400080937000089567E08BE290E00E9424039B
:1008500085E08A95F1F7000067E08BE290E00E9466
:10086000240385E08A95F1F700000895EF92FF9246
:100870000F931F93CF93DF93E82FF0E0EC5FFE4FD1
:10088000E080E62FF0E0E050FF4F0081C7E0D0E0CD
:10089000F12CA7010C2E02C0559547950A94E2F75A
:1008A000417060E085E290E00E9414030E942304FE
:1008B000219778F7C7E0D0E010E0A8010C2E02C025
:1008C000559547950A94E2F7417060E085E290E023
:1008D0000E9414030E942304219778F764E08BE2BE
:1008E00090E00E94240385E08A95F1F7000064E01F
:1008F0008BE290E00E94240385E08A95F1F70000E6
:10090000DF91CF911F910F91FF90EF9008958CE0B0
:100910000E94E2018EE091E00E94C70161E080E068
:100920000E94AB0188E191E00E94C70180917C00A8
:10093000807F80937C0080917C008F7D80937C0001
:1009400080917C00806480937C0080917A008F602D
:1009500080937A0061E081E00E94FB0363E081E024
:100960000E94430387E690E00E947B0278940E94F5
:100970009402833621F480917A00806813C0823615
:10098000B1F70E94BE018EE091E00E94C70161E0D4
:1009900080E00E94AB0188E191E00E94C701809154
:1009A0007A008F7780937A00E2CFEE0FFF1F0590D9
:1009B000F491E02D0994FB01DC0101900D920020DF
:1009C000E1F70895BB274A3031F4992322F4BDE2C0
:1009D000909581959F4F0C94EE04BB27FB01552702
:1009E000AA27880F991FAA1FA41710F0A41B83958C
:1009F0005051B9F7A05DAA3308F0A95DA193009703
:100A000079F7B111B1931192CB010C940705DC0178
:100A1000FC01672F71917723E1F7329704C07C9135
:100A20006D9370836291AE17BF07C8F30895F89471
:020A3000FFCFF6
:100A320008040201C0F9A4B0999282F880984D612D
:100A4200696E204D656E7500632D7374617274005A
:100A52001B5B343B33336D52494748541B5B306D4B
:100A6200001B5B343B33326D55501B5B306D001BFA
:100A72005B343B33356D444F574E1B5B306D001B6F
:100A82005B343B33316D53454C4543541B5B306DF6
:100A9200001B5B343B33366D4C4546541B5B306D5B
:100AA20000554E4B4E4F574E005249474854005541
:100AB2005000444F574E0053454C454354004C455B
:100AC200465400622D73746F7000202D20000A0DB1
:020AD200000022
:00000001FF
