:100000000C9434000C943E000C943E000C943E0082
:100010000C943E000C943E000C943E000C943E0068
:100020000C943E000C943E000C943E000C943E0058
:100030000C943E000C943E000C943E000C943E0048
:100040000C943E000C943E000C943E000C943E0038
:100050000C943E000C943E000C943E000C943E0028
:100060000C943E000C943E0011241FBECFEFD8E04C
:10007000DEBFCDBF0E949C000C94CD000C9400000C
:10008000FC01408121E030E001C0220F6A95EAF7CF
:10009000242B20830895FC01429121E030E001C02F
:1000A000220F6A95EAF72095342F32233083FC0122
:1000B0003081232320830895FC01429121E030E028
:1000C00001C0220F6A95EAF7322F3095342330832E
:1000D000FC013081232B20830895FC01808121E0E5
:1000E00030E001C0220F6A95EAF7413011F4282B65
:1000F00002C02095282320830895FC01408121E03F
:1001000030E001C0220F6A95EAF724272083089582
:10011000CF93DF9300D0CDB7DEB79A8389838981EF
:1001200090E002C0959587956A95E2F781700F90EF
:100130000F90DF91CF91089565E084E290E00E94F6
:10014000400060E084E290E00E94400062E08BE2C8
:1001500090E00E945C0040E065E085E290E00E9453
:100160006D0040E060E085E290E00E946D004A99F9
:10017000FECF65E085E290E00E947D0060E085E2D0
:1001800090E00E947D002FEF83ED90E321508040AE
:0E0190009040E1F700C00000EACFF894FFCFE6
:00000001FF
