:100000000C943B000C9458000C9458000C9458002D
:100010000C9458000C9458000C9458000C94580000
:100020000C9458000C9458000C9458000C945800F0
:100030000C9458000C9464000C9458000C945800D4
:100040000C945A000C9458000C941E020C944C0210
:100050000C9458000C9458000C9458000C945800C0
:100060000C9458000C9458000F0411041304150448
:1000700017041E04250411241FBECFEFD8E0DEBFF5
:10008000CDBF11E0A0E0B1E0ECE3FAE002C00590E2
:100090000D92A034B107D9F721E0A0E4B1E001C08E
:1000A0001D92A638B207E1F70E94CD040C941C05FE
:1000B0000C9400001F920F920FB60F9211240F9014
:1000C0000FBE0F901F9018951F920F920FB60F92B0
:1000D0001124EF92FF920F931F932F933F934F930F
:1000E0005F936F937F938F939F93AF93BF93EF93A0
:1000F000FF93CF93DF93CDB7DEB7C058D109DEBFF2
:10010000CDBF88EB0E94EC0280E00E9406030E94B3
:10011000240389EB0E94EC020E941003E82E0E9447
:100120001003F82E0E941003082F0E941A03182FA4
:100130000E9424038CE191E00E94C2024AE0BE01C9
:100140006F5F7F4F8E2D90E00E94E7040E94C202F5
:1001500085E291E00E94C2024AE0BE016F5F7F4FDC
:100160008F2D90E00E94E7040E94C20287E291E096
:100170000E94C2024AE0BE016F5F7F4F802F90E075
:100180000E94E7040E94C20285E291E00E94C2023E
:100190004AE0BE016F5F7F4F812F90E00E94E7042D
:1001A0000E94C202C058DF4F0FB6F894DEBF0FBEE8
:1001B000CDBFDF91CF91FF91EF91BF91AF919F9113
:1001C0008F917F916F915F914F913F912F911F91EF
:1001D0000F91FF90EF900F900FBE0F901F9018950A
:1001E0001F93CF93DF9300D01F92CDB7DEB78091DE
:1001F00000019091010182309105D9F08330910581
:1002000029F1019761F58091400187FD2EC040E101
:10021000BE016F5F7F4F90E00E94E70480E391E0B2
:100220000E94C202CE0101960E94C20282E090E0CA
:1002300018C080914001880F0E94EC02182F0E9484
:100240002403111107C083E090E00BC083E391E029
:100250000E94C202809140018F5F8093400181E043
:1002600090E090930101809300010F900F900F9008
:10027000DF91CF911F910895299A85E08A95F1F732
:10028000000029980895CF93C82F662311F0289A6B
:1002900001C02898549A559A569A579A5F985E9832
:1002A0005D985C98C7FD5F9AC6FD5E9AC5FD5D9A34
:1002B000C4FD5C9A0E943C015F985E985D985C98D2
:1002C000C3FD5F9AC2FD5E9AC1FD5D9AC0FD5C9A56
:1002D0000E943C015C9A5D9A5E9A5F9A8FE39FE16F
:1002E0000197F1F700C00000CF91089528985D9A1A
:1002F0005498559856985798299A85E08A95F1F719
:1003000000004C9B02C080E101C080E04D998062FA
:100310004E9980644F998068299895E09A95F1F7F5
:100320000000299A95E09A95F1F700004C998160B8
:100330004D9982604E9984604F99886029980895FC
:1003400060E00C94430161E00C944301611102C030
:10035000805801C080540C94A0010E94760187FD52
:10036000FCCF85E18A95F1F700000E94760190E0CC
:10037000089581E00C94A00182E00C94A00161E05A
:100380000C944301CF93DF93EC018991882319F0FA
:100390000E94BF01FACFDF91CF910895CF93DF93F1
:1003A000FC018491EF012196882321F00E94BF0176
:1003B000FE01F7CFDF91CF910895CF93C82F209AF8
:1003C000559A219A549A559A569A579A8FEF99EFBF
:1003D0000197F1F700C000005D9A5C9A0E943C0111
:1003E0008FE19EE40197F1F700C000000E943C01FC
:1003F0008FEF90E00197F1F700C000000E943C01F0
:100400008FEF90E00197F1F700C000005C980E9428
:100410003C018FEF90E00197F1F700C0000088E207
:100420000E94A00188E00E94A0010E94B90186E01C
:100430000E94A0018C2FCF910C94A0011F920F92CB
:100440000FB60F9211242F938F939F93EF93FF93E7
:100450008091C0009091C6008C71E0914301EF5FE4
:10046000EF7120914201E21739F0E0934301F0E08F
:10047000EA5BFE4F908301C082E090914101892B9D
:1004800080934101FF91EF919F918F912F910F9058
:100490000FBE0F901F9018951F920F920FB60F92DC
:1004A00011248F939F93EF93FF9390914501809137
:1004B0004401981769F0E0914401EF5FEF71E09318
:1004C0004401F0E0EA59FE4F80818093C60005C0E8
:1004D0008091C1008F7D8093C100FF91EF919F912A
:1004E0008F910F900FBE0F901F901895109245019D
:1004F00010924401109243011092420197FF03C0F1
:1005000022E02093C00090789093C5008093C400AF
:1005100088E98093C10086E08093C200089590919D
:100520004301809142019817A9F0909142019F5F89
:100530009F71E92FF0E0EA5BFE4F2081809141013D
:10054000909342011092410190E0982F8827820FEA
:10055000911D089580E091E00895909145019F5F7D
:100560009F71209144019217E1F3E92FF0E0EA59DD
:10057000FE4F8083909345018091C10080628093FB
:10058000C1000895CF93DF93EC018991882319F07E
:100590000E94AD02FACFDF91CF910895CF93DF9300
:1005A000FC018491EF012196882321F00E94AD0285
:1005B000FE01F7CFDF91CF91089587B18F7C87B986
:1005C00088B1806388B9E9EBF0E080818C7F80831B
:1005D00088E98093B800089594EA9093BC009091C4
:1005E000BC0097FFFCCF8093BB0084E88093BC00E5
:1005F0008091BC0087FFFCCF9091B900987F983123
:1006000019F081E0903409F480E008958093BB00F4
:1006100084E88093BC008091BC0087FFFCCF0895E4
:1006200084EC8093BC008091BC0087FFFCCF80915C
:10063000BB00089584E88093BC008091BC0087FFD4
:10064000FCCF8091BB00089584E98093BC0008959D
:10065000FC01429121E030E001C0220F6A95EAF7E7
:10066000342F322B3083FC013081232B20830895DB
:10067000FC01429121E030E001C0220F6A95EAF7C7
:100680002095342F32233083FC01308123232083B3
:100690000895FC01429121E030E001C0220F6A95EB
:1006A000EAF7322F309534233083FC013081232B3D
:1006B00020830895FC01808121E030E001C0220FF9
:1006C0006A95EAF7413011F4282B02C020952823BF
:1006D00020830895FC01408121E030E001C0220F19
:1006E0006A95EAF7242720830895CF93DF9300D0FB
:1006F000CDB7DEB79A838983898190E002C0959552
:1007000087956A95E2F781700F900F90DF91CF91F6
:100710000895811131C06330F9F050F4662379F007
:10072000613039F585B58B7F85BD85B582600FC099
:10073000653041F06630E9F485B5846013C085B555
:100740008B7F10C085B5846085BD85B58D7F85BDE7
:1007500085B58E7F85BD089585B58B7F85BD85B5B3
:10076000826003C085BD85B58D7F85BD85B58160FF
:10077000F1CF85B58B7FE8CF813009F044C063307D
:10078000D1F068F4662399F0613069F580918100B9
:100790008B7F809381008091810082602CC06530C6
:1007A00099F0663001F580918100846011C08091DC
:1007B00081008B7F0DC0809181008B7F80938100B1
:1007C00080918100826009C08091810084600EC0A8
:1007D00080938100809181008D7F80938100809142
:1007E000810081600DC0809181008B7F80938100AA
:1007F000809181008D7F80938100809181008E7F28
:10080000809381000895862F90E08730910548F508
:10081000FC01EC5CFF4F8091B1000C94E1048B7FF4
:1008200007C08B7F0CC08B7F11C084601DC08460AB
:100830008093B1008091B1008D7F0DC08460809362
:10084000B1008091B100826014C084608093B100D7
:100850008091B10082608093B1008091B10081608D
:100860000DC08091B1008B7F8093B1008091B10069
:100870008D7F8093B1008091B1008E7F8093B10015
:10088000089581110CC080916E00662321F06130C3
:1008900011F4816001C08E7F80936E0008958130D5
:1008A00061F480916F00662321F0613011F4816062
:1008B00001C08E7F80936F00089580917000662341
:1008C00021F0613011F4816001C08E7F809370004F
:1008D000089567E08BE290E00E946A0385E08A95C4
:1008E000F1F7000067E08BE290E00E946A0385E088
:1008F0008A95F1F700000895EF92FF920F931F93EE
:10090000CF93DF93E82FF0E0EA5FFE4FE080E62F21
:10091000F0E0EE5FFE4F0081C7E0D0E0F12CA701D0
:100920000C2E02C0559547950A94E2F7417060E09D
:1009300085E290E00E945A030E946904219778F7AB
:10094000C7E0D0E010E0A8010C2E02C055954795F5
:100950000A94E2F7417060E085E290E00E945A0359
:100960000E946904219778F764E08BE290E00E948E
:100970006A0385E08A95F1F7000064E08BE290E07D
:100980000E946A0385E08A95F1F70000DF91CF911C
:100990001F910F91FF90EF90089587E690E00E94DD
:1009A00076020E94DD0261E081E00E94890361E03D
:1009B00081E00E944104789480E191E00E94C202AB
:1009C000FFCFEE0FFF1F0590F491E02D0994BB2798
:1009D0004A3031F4992322F4BDE2909581959F4FDE
:1009E0000C94F304BB27FB015527AA27880F991FF6
:1009F000AA1FA41710F0A41B83955051B9F7A05D4E
:100A0000AA3308F0A95DA193009779F7B111B193CA
:100A10001192CB010C940C05DC01FC01672F719144
:100A20007723E1F7329704C07C916D9370836291D4
:0C0A3000AE17BF07C8F30895F894FFCF7D
:100A3C00010008040201C0F9A4B0999282F88098D0
:100A4C000D0A2D2D2D5420732D2D2D000D0A4875BA
:100A5C006D203A20002C000D0A54656D203A2000C0
:100A6C000D0A00204F4B202D2052454545450000D6
:00000001FF
